{
  "_format": "hh-sol-artifact-1",
  "contractName": "NotesApp",
  "sourceName": "contracts/diary.sol",
  "abi": [
    {
      "anonymous": false,
      "inputs": [
        {
          "indexed": true,
          "internalType": "address",
          "name": "user",
          "type": "address"
        },
        {
          "indexed": false,
          "internalType": "uint256",
          "name": "noteId",
          "type": "uint256"
        },
        {
          "indexed": false,
          "internalType": "string",
          "name": "content",
          "type": "string"
        },
        {
          "indexed": false,
          "internalType": "uint256",
          "name": "timestamp",
          "type": "uint256"
        }
      ],
      "name": "NoteCreated",
      "type": "event"
    },
    {
      "anonymous": false,
      "inputs": [
        {
          "indexed": true,
          "internalType": "address",
          "name": "user",
          "type": "address"
        },
        {
          "indexed": false,
          "internalType": "uint256",
          "name": "noteId",
          "type": "uint256"
        }
      ],
      "name": "NoteDeleted",
      "type": "event"
    },
    {
      "inputs": [
        {
          "internalType": "string",
          "name": "_content",
          "type": "string"
        }
      ],
      "name": "createNote",
      "outputs": [],
      "stateMutability": "nonpayable",
      "type": "function"
    },
    {
      "inputs": [
        {
          "internalType": "uint256",
          "name": "_noteId",
          "type": "uint256"
        }
      ],
      "name": "deleteNote",
      "outputs": [],
      "stateMutability": "nonpayable",
      "type": "function"
    },
    {
      "inputs": [],
      "name": "getNotes",
      "outputs": [
        {
          "components": [
            {
              "internalType": "uint256",
              "name": "id",
              "type": "uint256"
            },
            {
              "internalType": "string",
              "name": "content",
              "type": "string"
            },
            {
              "internalType": "uint256",
              "name": "timestamp",
              "type": "uint256"
            }
          ],
          "internalType": "struct NotesApp.Note[]",
          "name": "",
          "type": "tuple[]"
        }
      ],
      "stateMutability": "view",
      "type": "function"
    }
  ],
  "bytecode": "0x608060405234801561001057600080fd5b50610fe6806100206000396000f3fe608060405234801561001057600080fd5b50600436106100415760003560e01c8063b4af200d14610046578063c47177f414610064578063e1250ab414610080575b600080fd5b61004e61009c565b60405161005b919061088a565b60405180910390f35b61007e600480360381019061007991906108e2565b6101dd565b005b61009a60048036038101906100959190610974565b6104e1565b005b60606000803373ffffffffffffffffffffffffffffffffffffffff1673ffffffffffffffffffffffffffffffffffffffff168152602001908152602001600020805480602002602001604051908101604052809291908181526020016000905b828210156101d4578382906000526020600020906003020160405180606001604052908160008201548152602001600182018054610139906109f0565b80601f0160208091040260200160405190810160405280929190818152602001828054610165906109f0565b80156101b25780601f10610187576101008083540402835291602001916101b2565b820191906000526020600020905b81548152906001019060200180831161019557829003601f168201915b50505050508152602001600282015481525050815260200190600101906100fc565b50505050905090565b6000803373ffffffffffffffffffffffffffffffffffffffff1673ffffffffffffffffffffffffffffffffffffffff168152602001908152602001600020805490508110610260576040517f08c379a000000000000000000000000000000000000000000000000000000000815260040161025790610a7e565b60405180910390fd5b600060016000803373ffffffffffffffffffffffffffffffffffffffff1673ffffffffffffffffffffffffffffffffffffffff168152602001908152602001600020805490506102b09190610acd565b9050808214610408576000803373ffffffffffffffffffffffffffffffffffffffff1673ffffffffffffffffffffffffffffffffffffffff168152602001908152602001600020818154811061030957610308610b01565b5b90600052602060002090600302016000803373ffffffffffffffffffffffffffffffffffffffff1673ffffffffffffffffffffffffffffffffffffffff168152602001908152602001600020838154811061036757610366610b01565b5b906000526020600020906003020160008201548160000155600182018160010190816103939190610d21565b5060028201548160020155905050816000803373ffffffffffffffffffffffffffffffffffffffff1673ffffffffffffffffffffffffffffffffffffffff16815260200190815260200160002083815481106103f2576103f1610b01565b5b9060005260206000209060030201600001819055505b6000803373ffffffffffffffffffffffffffffffffffffffff1673ffffffffffffffffffffffffffffffffffffffff16815260200190815260200160002080548061045657610455610e09565b5b60019003818190600052602060002090600302016000808201600090556001820160006104839190610672565b6002820160009055505090553373ffffffffffffffffffffffffffffffffffffffff167fab9e4514a74f5b1933f08ac8f9833934a73b0bff8a2707cb83ad0aeabe63d224836040516104d59190610e47565b60405180910390a25050565b60008060003373ffffffffffffffffffffffffffffffffffffffff1673ffffffffffffffffffffffffffffffffffffffff1681526020019081526020016000208054905090506000803373ffffffffffffffffffffffffffffffffffffffff1673ffffffffffffffffffffffffffffffffffffffff168152602001908152602001600020604051806060016040528083815260200185858080601f016020809104026020016040519081016040528093929190818152602001838380828437600081840152601f19601f82011690508083019250505050505050815260200142815250908060018154018082558091505060019003906000526020600020906003020160009091909190915060008201518160000155602082015181600101908161060c9190610e62565b506040820151816002015550503373ffffffffffffffffffffffffffffffffffffffff167f3757301ccf17cce038bfa8228f0c48264ac61b64aa653961231b077e265d5183828585426040516106659493929190610f70565b60405180910390a2505050565b50805461067e906109f0565b6000825580601f1061069057506106af565b601f0160209004906000526020600020908101906106ae91906106b2565b5b50565b5b808211156106cb5760008160009055506001016106b3565b5090565b600081519050919050565b600082825260208201905092915050565b6000819050602082019050919050565b6000819050919050565b61070e816106fb565b82525050565b600081519050919050565b600082825260208201905092915050565b60005b8381101561074e578082015181840152602081019050610733565b60008484015250505050565b6000601f19601f8301169050919050565b600061077682610714565b610780818561071f565b9350610790818560208601610730565b6107998161075a565b840191505092915050565b60006060830160008301516107bc6000860182610705565b50602083015184820360208601526107d4828261076b565b91505060408301516107e96040860182610705565b508091505092915050565b600061080083836107a4565b905092915050565b6000602082019050919050565b6000610820826106cf565b61082a81856106da565b93508360208202850161083c856106eb565b8060005b85811015610878578484038952815161085985826107f4565b945061086483610808565b925060208a01995050600181019050610840565b50829750879550505050505092915050565b600060208201905081810360008301526108a48184610815565b905092915050565b600080fd5b600080fd5b6108bf816106fb565b81146108ca57600080fd5b50565b6000813590506108dc816108b6565b92915050565b6000602082840312156108f8576108f76108ac565b5b6000610906848285016108cd565b91505092915050565b600080fd5b600080fd5b600080fd5b60008083601f8401126109345761093361090f565b5b8235905067ffffffffffffffff81111561095157610950610914565b5b60208301915083600182028301111561096d5761096c610919565b5b9250929050565b6000806020838503121561098b5761098a6108ac565b5b600083013567ffffffffffffffff8111156109a9576109a86108b1565b5b6109b58582860161091e565b92509250509250929050565b7f4e487b7100000000000000000000000000000000000000000000000000000000600052602260045260246000fd5b60006002820490506001821680610a0857607f821691505b602082108103610a1b57610a1a6109c1565b5b50919050565b600082825260208201905092915050565b7f4e6f746520646f6573206e6f7420657869737400000000000000000000000000600082015250565b6000610a68601383610a21565b9150610a7382610a32565b602082019050919050565b60006020820190508181036000830152610a9781610a5b565b9050919050565b7f4e487b7100000000000000000000000000000000000000000000000000000000600052601160045260246000fd5b6000610ad8826106fb565b9150610ae3836106fb565b9250828203905081811115610afb57610afa610a9e565b5b92915050565b7f4e487b7100000000000000000000000000000000000000000000000000000000600052603260045260246000fd5b600081549050610b3f816109f0565b9050919050565b7f4e487b7100000000000000000000000000000000000000000000000000000000600052604160045260246000fd5b60008190508160005260206000209050919050565b60006020601f8301049050919050565b600082821b905092915050565b600060088302610bd77fffffffffffffffffffffffffffffffffffffffffffffffffffffffffffffffff82610b9a565b610be18683610b9a565b95508019841693508086168417925050509392505050565b6000819050919050565b6000610c1e610c19610c14846106fb565b610bf9565b6106fb565b9050919050565b6000819050919050565b610c3883610c03565b610c4c610c4482610c25565b848454610ba7565b825550505050565b600090565b610c61610c54565b610c6c818484610c2f565b505050565b5b81811015610c9057610c85600082610c59565b600181019050610c72565b5050565b601f821115610cd557610ca681610b75565b610caf84610b8a565b81016020851015610cbe578190505b610cd2610cca85610b8a565b830182610c71565b50505b505050565b600082821c905092915050565b6000610cf860001984600802610cda565b1980831691505092915050565b6000610d118383610ce7565b9150826002028217905092915050565b818103610d2f575050610e07565b610d3882610b30565b67ffffffffffffffff811115610d5157610d50610b46565b5b610d5b82546109f0565b610d66828285610c94565b6000601f831160018114610d955760008415610d83578287015490505b610d8d8582610d05565b865550610e00565b601f198416610da387610b75565b9650610dae86610b75565b60005b82811015610dd657848901548255600182019150600185019450602081019050610db1565b86831015610df35784890154610def601f891682610ce7565b8355505b6001600288020188555050505b5050505050505b565b7f4e487b7100000000000000000000000000000000000000000000000000000000600052603160045260246000fd5b610e41816106fb565b82525050565b6000602082019050610e5c6000830184610e38565b92915050565b610e6b82610714565b67ffffffffffffffff811115610e8457610e83610b46565b5b610e8e82546109f0565b610e99828285610c94565b600060209050601f831160018114610ecc5760008415610eba578287015190505b610ec48582610d05565b865550610f2c565b601f198416610eda86610b75565b60005b82811015610f0257848901518255600182019150602085019450602081019050610edd565b86831015610f1f5784890151610f1b601f891682610ce7565b8355505b6001600288020188555050505b505050505050565b82818337600083830152505050565b6000610f4f8385610a21565b9350610f5c838584610f34565b610f658361075a565b840190509392505050565b6000606082019050610f856000830187610e38565b8181036020830152610f98818587610f43565b9050610fa76040830184610e38565b9594505050505056fea2646970667358221220b93361c40107ddca1ff3bb819e45fb1847a61f56b14472dae0b37587bff54e4b64736f6c63430008180033",
  "linkReferences": {},
  "deployedLinkReferences": {}
}